{
  "_format": "hh-sol-artifact-1",
  "contractName": "PolyfillFurnitureToken",
  "sourceName": "contracts/PolyfillFurniture.sol",
  "abi": [
    {
      "inputs": [],
      "stateMutability": "nonpayable",
      "type": "constructor"
    },
    {
      "anonymous": false,
      "inputs": [
        {
          "indexed": false,
          "internalType": "address",
          "name": "previousAdmin",
          "type": "address"
        },
        {
          "indexed": false,
          "internalType": "address",
          "name": "newAdmin",
          "type": "address"
        }
      ],
      "name": "AdminChanged",
      "type": "event"
    },
    {
      "anonymous": false,
      "inputs": [
        {
          "indexed": true,
          "internalType": "address",
          "name": "owner",
          "type": "address"
        },
        {
          "indexed": true,
          "internalType": "address",
          "name": "approved",
          "type": "address"
        },
        {
          "indexed": true,
          "internalType": "uint256",
          "name": "tokenId",
          "type": "uint256"
        }
      ],
      "name": "Approval",
      "type": "event"
    },
    {
      "anonymous": false,
      "inputs": [
        {
          "indexed": true,
          "internalType": "address",
          "name": "owner",
          "type": "address"
        },
        {
          "indexed": true,
          "internalType": "address",
          "name": "operator",
          "type": "address"
        },
        {
          "indexed": false,
          "internalType": "bool",
          "name": "approved",
          "type": "bool"
        }
      ],
      "name": "ApprovalForAll",
      "type": "event"
    },
    {
      "anonymous": false,
      "inputs": [
        {
          "indexed": true,
          "internalType": "address",
          "name": "beacon",
          "type": "address"
        }
      ],
      "name": "BeaconUpgraded",
      "type": "event"
    },
    {
      "anonymous": false,
      "inputs": [
        {
          "indexed": false,
          "internalType": "uint8",
          "name": "version",
          "type": "uint8"
        }
      ],
      "name": "Initialized",
      "type": "event"
    },
    {
      "anonymous": false,
      "inputs": [
        {
          "indexed": true,
          "internalType": "address",
          "name": "previousOwner",
          "type": "address"
        },
        {
          "indexed": true,
          "internalType": "address",
          "name": "newOwner",
          "type": "address"
        }
      ],
      "name": "OwnershipTransferred",
      "type": "event"
    },
    {
      "anonymous": false,
      "inputs": [
        {
          "indexed": false,
          "internalType": "address",
          "name": "account",
          "type": "address"
        }
      ],
      "name": "Paused",
      "type": "event"
    },
    {
      "anonymous": false,
      "inputs": [
        {
          "indexed": true,
          "internalType": "address",
          "name": "from",
          "type": "address"
        },
        {
          "indexed": true,
          "internalType": "address",
          "name": "to",
          "type": "address"
        },
        {
          "indexed": true,
          "internalType": "uint256",
          "name": "tokenId",
          "type": "uint256"
        }
      ],
      "name": "Transfer",
      "type": "event"
    },
    {
      "anonymous": false,
      "inputs": [
        {
          "indexed": false,
          "internalType": "address",
          "name": "account",
          "type": "address"
        }
      ],
      "name": "Unpaused",
      "type": "event"
    },
    {
      "anonymous": false,
      "inputs": [
        {
          "indexed": true,
          "internalType": "address",
          "name": "implementation",
          "type": "address"
        }
      ],
      "name": "Upgraded",
      "type": "event"
    },
    {
      "inputs": [
        {
          "internalType": "address",
          "name": "to",
          "type": "address"
        },
        {
          "internalType": "uint256",
          "name": "tokenId",
          "type": "uint256"
        }
      ],
      "name": "approve",
      "outputs": [],
      "stateMutability": "nonpayable",
      "type": "function"
    },
    {
      "inputs": [
        {
          "internalType": "address",
          "name": "owner",
          "type": "address"
        }
      ],
      "name": "balanceOf",
      "outputs": [
        {
          "internalType": "uint256",
          "name": "",
          "type": "uint256"
        }
      ],
      "stateMutability": "view",
      "type": "function"
    },
    {
      "inputs": [
        {
          "internalType": "uint256",
          "name": "tokenId",
          "type": "uint256"
        }
      ],
      "name": "burn",
      "outputs": [],
      "stateMutability": "nonpayable",
      "type": "function"
    },
    {
      "inputs": [
        {
          "internalType": "uint256",
          "name": "tokenId",
          "type": "uint256"
        }
      ],
      "name": "getApproved",
      "outputs": [
        {
          "internalType": "address",
          "name": "",
          "type": "address"
        }
      ],
      "stateMutability": "view",
      "type": "function"
    },
    {
      "inputs": [],
      "name": "initialize",
      "outputs": [],
      "stateMutability": "nonpayable",
      "type": "function"
    },
    {
      "inputs": [
        {
          "internalType": "address",
          "name": "owner",
          "type": "address"
        },
        {
          "internalType": "address",
          "name": "operator",
          "type": "address"
        }
      ],
      "name": "isApprovedForAll",
      "outputs": [
        {
          "internalType": "bool",
          "name": "",
          "type": "bool"
        }
      ],
      "stateMutability": "view",
      "type": "function"
    },
    {
      "inputs": [],
      "name": "name",
      "outputs": [
        {
          "internalType": "string",
          "name": "",
          "type": "string"
        }
      ],
      "stateMutability": "view",
      "type": "function"
    },
    {
      "inputs": [],
      "name": "owner",
      "outputs": [
        {
          "internalType": "address",
          "name": "",
          "type": "address"
        }
      ],
      "stateMutability": "view",
      "type": "function"
    },
    {
      "inputs": [
        {
          "internalType": "uint256",
          "name": "tokenId",
          "type": "uint256"
        }
      ],
      "name": "ownerOf",
      "outputs": [
        {
          "internalType": "address",
          "name": "",
          "type": "address"
        }
      ],
      "stateMutability": "view",
      "type": "function"
    },
    {
      "inputs": [],
      "name": "pause",
      "outputs": [],
      "stateMutability": "nonpayable",
      "type": "function"
    },
    {
      "inputs": [],
      "name": "paused",
      "outputs": [
        {
          "internalType": "bool",
          "name": "",
          "type": "bool"
        }
      ],
      "stateMutability": "view",
      "type": "function"
    },
    {
      "inputs": [],
      "name": "proxiableUUID",
      "outputs": [
        {
          "internalType": "bytes32",
          "name": "",
          "type": "bytes32"
        }
      ],
      "stateMutability": "view",
      "type": "function"
    },
    {
      "inputs": [],
      "name": "renounceOwnership",
      "outputs": [],
      "stateMutability": "nonpayable",
      "type": "function"
    },
    {
      "inputs": [
        {
          "internalType": "address",
          "name": "to",
          "type": "address"
        }
      ],
      "name": "safeMint",
      "outputs": [],
      "stateMutability": "nonpayable",
      "type": "function"
    },
    {
      "inputs": [
        {
          "internalType": "address",
          "name": "from",
          "type": "address"
        },
        {
          "internalType": "address",
          "name": "to",
          "type": "address"
        },
        {
          "internalType": "uint256",
          "name": "tokenId",
          "type": "uint256"
        }
      ],
      "name": "safeTransferFrom",
      "outputs": [],
      "stateMutability": "nonpayable",
      "type": "function"
    },
    {
      "inputs": [
        {
          "internalType": "address",
          "name": "from",
          "type": "address"
        },
        {
          "internalType": "address",
          "name": "to",
          "type": "address"
        },
        {
          "internalType": "uint256",
          "name": "tokenId",
          "type": "uint256"
        },
        {
          "internalType": "bytes",
          "name": "data",
          "type": "bytes"
        }
      ],
      "name": "safeTransferFrom",
      "outputs": [],
      "stateMutability": "nonpayable",
      "type": "function"
    },
    {
      "inputs": [
        {
          "internalType": "address",
          "name": "operator",
          "type": "address"
        },
        {
          "internalType": "bool",
          "name": "approved",
          "type": "bool"
        }
      ],
      "name": "setApprovalForAll",
      "outputs": [],
      "stateMutability": "nonpayable",
      "type": "function"
    },
    {
      "inputs": [
        {
          "internalType": "bytes4",
          "name": "interfaceId",
          "type": "bytes4"
        }
      ],
      "name": "supportsInterface",
      "outputs": [
        {
          "internalType": "bool",
          "name": "",
          "type": "bool"
        }
      ],
      "stateMutability": "view",
      "type": "function"
    },
    {
      "inputs": [],
      "name": "symbol",
      "outputs": [
        {
          "internalType": "string",
          "name": "",
          "type": "string"
        }
      ],
      "stateMutability": "view",
      "type": "function"
    },
    {
      "inputs": [
        {
          "internalType": "uint256",
          "name": "tokenId",
          "type": "uint256"
        }
      ],
      "name": "tokenURI",
      "outputs": [
        {
          "internalType": "string",
          "name": "",
          "type": "string"
        }
      ],
      "stateMutability": "view",
      "type": "function"
    },
    {
      "inputs": [
        {
          "internalType": "address",
          "name": "from",
          "type": "address"
        },
        {
          "internalType": "address",
          "name": "to",
          "type": "address"
        },
        {
          "internalType": "uint256",
          "name": "tokenId",
          "type": "uint256"
        }
      ],
      "name": "transferFrom",
      "outputs": [],
      "stateMutability": "nonpayable",
      "type": "function"
    },
    {
      "inputs": [
        {
          "internalType": "address",
          "name": "newOwner",
          "type": "address"
        }
      ],
      "name": "transferOwnership",
      "outputs": [],
      "stateMutability": "nonpayable",
      "type": "function"
    },
    {
      "inputs": [],
      "name": "unpause",
      "outputs": [],
      "stateMutability": "nonpayable",
      "type": "function"
    },
    {
      "inputs": [
        {
          "internalType": "address",
          "name": "newImplementation",
          "type": "address"
        }
      ],
      "name": "upgradeTo",
      "outputs": [],
      "stateMutability": "nonpayable",
      "type": "function"
    },
    {
      "inputs": [
        {
          "internalType": "address",
          "name": "newImplementation",
          "type": "address"
        },
        {
          "internalType": "bytes",
          "name": "data",
          "type": "bytes"
        }
      ],
      "name": "upgradeToAndCall",
      "outputs": [],
      "stateMutability": "payable",
      "type": "function"
    }
  ],
  "bytecode": "0x60a06040523073ffffffffffffffffffffffffffffffffffffffff1660809073ffffffffffffffffffffffffffffffffffffffff168152503480156200004457600080fd5b50620000556200005b60201b60201c565b62000206565b600060019054906101000a900460ff1615620000ae576040517f08c379a0000000000000000000000000000000000000000000000000000000008152600401620000a590620001a9565b60405180910390fd5b60ff801660008054906101000a900460ff1660ff161015620001205760ff6000806101000a81548160ff021916908360ff1602179055507f7f26b83ff96e1f2b6a682f133852f6798a09c465da95921460cefb384740249860ff604051620001179190620001e9565b60405180910390a15b565b600082825260208201905092915050565b7f496e697469616c697a61626c653a20636f6e747261637420697320696e69746960008201527f616c697a696e6700000000000000000000000000000000000000000000000000602082015250565b60006200019160278362000122565b91506200019e8262000133565b604082019050919050565b60006020820190508181036000830152620001c48162000182565b9050919050565b600060ff82169050919050565b620001e381620001cb565b82525050565b6000602082019050620002006000830184620001d8565b92915050565b6080516143426200023e600039600081816108cd0152818161095c01528181610b1401528181610ba30152610c5301526143426000f3fe6080604052600436106101665760003560e01c80635c975abb116100d15780638da5cb5b1161008a578063b88d4fde11610064578063b88d4fde146104cd578063c87b56dd146104f6578063e985e9c514610533578063f2fde38b1461057057610166565b80638da5cb5b1461044e57806395d89b4114610479578063a22cb465146104a457610166565b80635c975abb146103645780636352211e1461038f57806370a08231146103cc578063715018a6146104095780638129fc1c146104205780638456cb591461043757610166565b80633f4ba83a116101235780633f4ba83a1461028b57806340d097c3146102a257806342842e0e146102cb57806342966c68146102f45780634f1ef2861461031d57806352d1902d1461033957610166565b806301ffc9a71461016b57806306fdde03146101a8578063081812fc146101d3578063095ea7b31461021057806323b872dd146102395780633659cfe614610262575b600080fd5b34801561017757600080fd5b50610192600480360381019061018d9190612bd9565b610599565b60405161019f9190612c21565b60405180910390f35b3480156101b457600080fd5b506101bd61067b565b6040516101ca9190612cd5565b60405180910390f35b3480156101df57600080fd5b506101fa60048036038101906101f59190612d2d565b61070d565b6040516102079190612d9b565b60405180910390f35b34801561021c57600080fd5b5061023760048036038101906102329190612de2565b610753565b005b34801561024557600080fd5b50610260600480360381019061025b9190612e22565b61086b565b005b34801561026e57600080fd5b5061028960048036038101906102849190612e75565b6108cb565b005b34801561029757600080fd5b506102a0610a54565b005b3480156102ae57600080fd5b506102c960048036038101906102c49190612e75565b610a66565b005b3480156102d757600080fd5b506102f260048036038101906102ed9190612e22565b610a96565b005b34801561030057600080fd5b5061031b60048036038101906103169190612d2d565b610ab6565b005b61033760048036038101906103329190612fd7565b610b12565b005b34801561034557600080fd5b5061034e610c4f565b60405161035b919061304c565b60405180910390f35b34801561037057600080fd5b50610379610d08565b6040516103869190612c21565b60405180910390f35b34801561039b57600080fd5b506103b660048036038101906103b19190612d2d565b610d1f565b6040516103c39190612d9b565b60405180910390f35b3480156103d857600080fd5b506103f360048036038101906103ee9190612e75565b610dd1565b6040516104009190613076565b60405180910390f35b34801561041557600080fd5b5061041e610e89565b005b34801561042c57600080fd5b50610435610e9d565b005b34801561044357600080fd5b5061044c611067565b005b34801561045a57600080fd5b50610463611079565b6040516104709190612d9b565b60405180910390f35b34801561048557600080fd5b5061048e6110a3565b60405161049b9190612cd5565b60405180910390f35b3480156104b057600080fd5b506104cb60048036038101906104c691906130bd565b611135565b005b3480156104d957600080fd5b506104f460048036038101906104ef91906130fd565b61114b565b005b34801561050257600080fd5b5061051d60048036038101906105189190612d2d565b6111ad565b60405161052a9190612cd5565b60405180910390f35b34801561053f57600080fd5b5061055a60048036038101906105559190613180565b611215565b6040516105679190612c21565b60405180910390f35b34801561057c57600080fd5b5061059760048036038101906105929190612e75565b6112a9565b005b60007f80ac58cd000000000000000000000000000000000000000000000000000000007bffffffffffffffffffffffffffffffffffffffffffffffffffffffff1916827bffffffffffffffffffffffffffffffffffffffffffffffffffffffff1916148061066457507f5b5e139f000000000000000000000000000000000000000000000000000000007bffffffffffffffffffffffffffffffffffffffffffffffffffffffff1916827bffffffffffffffffffffffffffffffffffffffffffffffffffffffff1916145b8061067457506106738261132d565b5b9050919050565b60606065805461068a906131ef565b80601f01602080910402602001604051908101604052809291908181526020018280546106b6906131ef565b80156107035780601f106106d857610100808354040283529160200191610703565b820191906000526020600020905b8154815290600101906020018083116106e657829003601f168201915b5050505050905090565b600061071882611397565b6069600083815260200190815260200160002060009054906101000a900473ffffffffffffffffffffffffffffffffffffffff169050919050565b600061075e82610d1f565b90508073ffffffffffffffffffffffffffffffffffffffff168373ffffffffffffffffffffffffffffffffffffffff1614156107cf576040517f08c379a00000000000000000000000000000000000000000000000000000000081526004016107c690613293565b60405180910390fd5b8073ffffffffffffffffffffffffffffffffffffffff166107ee6113e2565b73ffffffffffffffffffffffffffffffffffffffff16148061081d575061081c816108176113e2565b611215565b5b61085c576040517f08c379a000000000000000000000000000000000000000000000000000000000815260040161085390613325565b60405180910390fd5b61086683836113ea565b505050565b61087c6108766113e2565b826114a3565b6108bb576040517f08c379a00000000000000000000000000000000000000000000000000000000081526004016108b2906133b7565b60405180910390fd5b6108c6838383611538565b505050565b7f000000000000000000000000000000000000000000000000000000000000000073ffffffffffffffffffffffffffffffffffffffff163073ffffffffffffffffffffffffffffffffffffffff16141561095a576040517f08c379a000000000000000000000000000000000000000000000000000000000815260040161095190613449565b60405180910390fd5b7f000000000000000000000000000000000000000000000000000000000000000073ffffffffffffffffffffffffffffffffffffffff1661099961179f565b73ffffffffffffffffffffffffffffffffffffffff16146109ef576040517f08c379a00000000000000000000000000000000000000000000000000000000081526004016109e6906134db565b60405180910390fd5b6109f8816117f6565b610a5181600067ffffffffffffffff811115610a1757610a16612eac565b5b6040519080825280601f01601f191660200182016040528015610a495781602001600182028036833780820191505090505b506000611801565b50565b610a5c61197e565b610a646119fc565b565b610a6e61197e565b6000610a7b610191611a5f565b9050610a88610191611a6d565b610a928282611a83565b5050565b610ab18383836040518060200160405280600081525061114b565b505050565b610ac7610ac16113e2565b826114a3565b610b06576040517f08c379a0000000000000000000000000000000000000000000000000000000008152600401610afd906133b7565b60405180910390fd5b610b0f81611aa1565b50565b7f000000000000000000000000000000000000000000000000000000000000000073ffffffffffffffffffffffffffffffffffffffff163073ffffffffffffffffffffffffffffffffffffffff161415610ba1576040517f08c379a0000000000000000000000000000000000000000000000000000000008152600401610b9890613449565b60405180910390fd5b7f000000000000000000000000000000000000000000000000000000000000000073ffffffffffffffffffffffffffffffffffffffff16610be061179f565b73ffffffffffffffffffffffffffffffffffffffff1614610c36576040517f08c379a0000000000000000000000000000000000000000000000000000000008152600401610c2d906134db565b60405180910390fd5b610c3f826117f6565b610c4b82826001611801565b5050565b60007f000000000000000000000000000000000000000000000000000000000000000073ffffffffffffffffffffffffffffffffffffffff163073ffffffffffffffffffffffffffffffffffffffff1614610cdf576040517f08c379a0000000000000000000000000000000000000000000000000000000008152600401610cd69061356d565b60405180910390fd5b7f360894a13ba1a3210667c828492db98dca3e2076cc3735a920a3ca505d382bbc60001b905090565b6000609760009054906101000a900460ff16905090565b6000806067600084815260200190815260200160002060009054906101000a900473ffffffffffffffffffffffffffffffffffffffff169050600073ffffffffffffffffffffffffffffffffffffffff168173ffffffffffffffffffffffffffffffffffffffff161415610dc8576040517f08c379a0000000000000000000000000000000000000000000000000000000008152600401610dbf906135d9565b60405180910390fd5b80915050919050565b60008073ffffffffffffffffffffffffffffffffffffffff168273ffffffffffffffffffffffffffffffffffffffff161415610e42576040517f08c379a0000000000000000000000000000000000000000000000000000000008152600401610e399061366b565b60405180910390fd5b606860008373ffffffffffffffffffffffffffffffffffffffff1673ffffffffffffffffffffffffffffffffffffffff168152602001908152602001600020549050919050565b610e9161197e565b610e9b6000611bbe565b565b60008060019054906101000a900460ff16159050808015610ece5750600160008054906101000a900460ff1660ff16105b80610efb5750610edd30611c84565b158015610efa5750600160008054906101000a900460ff1660ff16145b5b610f3a576040517f08c379a0000000000000000000000000000000000000000000000000000000008152600401610f31906136fd565b60405180910390fd5b60016000806101000a81548160ff021916908360ff1602179055508015610f77576001600060016101000a81548160ff0219169083151502179055505b610feb6040518060400160405280601681526020017f506f6c7966696c6c4675726e6974757265546f6b656e000000000000000000008152506040518060400160405280600381526020017f4d544b0000000000000000000000000000000000000000000000000000000000815250611ca7565b610ff3611d04565b610ffb611d5d565b611003611db6565b61100b611e07565b80156110645760008060016101000a81548160ff0219169083151502179055507f7f26b83ff96e1f2b6a682f133852f6798a09c465da95921460cefb3847402498600160405161105b919061376f565b60405180910390a15b50565b61106f61197e565b611077611e58565b565b600060c960009054906101000a900473ffffffffffffffffffffffffffffffffffffffff16905090565b6060606680546110b2906131ef565b80601f01602080910402602001604051908101604052809291908181526020018280546110de906131ef565b801561112b5780601f106111005761010080835404028352916020019161112b565b820191906000526020600020905b81548152906001019060200180831161110e57829003601f168201915b5050505050905090565b6111476111406113e2565b8383611ebb565b5050565b61115c6111566113e2565b836114a3565b61119b576040517f08c379a0000000000000000000000000000000000000000000000000000000008152600401611192906133b7565b60405180910390fd5b6111a784848484612028565b50505050565b60606111b882611397565b60006111c2612084565b905060008151116111e2576040518060200160405280600081525061120d565b806111ec8461209b565b6040516020016111fd9291906137c6565b6040516020818303038152906040525b915050919050565b6000606a60008473ffffffffffffffffffffffffffffffffffffffff1673ffffffffffffffffffffffffffffffffffffffff16815260200190815260200160002060008373ffffffffffffffffffffffffffffffffffffffff1673ffffffffffffffffffffffffffffffffffffffff16815260200190815260200160002060009054906101000a900460ff16905092915050565b6112b161197e565b600073ffffffffffffffffffffffffffffffffffffffff168173ffffffffffffffffffffffffffffffffffffffff161415611321576040517f08c379a00000000000000000000000000000000000000000000000000000000081526004016113189061385c565b60405180910390fd5b61132a81611bbe565b50565b60007f01ffc9a7000000000000000000000000000000000000000000000000000000007bffffffffffffffffffffffffffffffffffffffffffffffffffffffff1916827bffffffffffffffffffffffffffffffffffffffffffffffffffffffff1916149050919050565b6113a0816121fc565b6113df576040517f08c379a00000000000000000000000000000000000000000000000000000000081526004016113d6906135d9565b60405180910390fd5b50565b600033905090565b816069600083815260200190815260200160002060006101000a81548173ffffffffffffffffffffffffffffffffffffffff021916908373ffffffffffffffffffffffffffffffffffffffff160217905550808273ffffffffffffffffffffffffffffffffffffffff1661145d83610d1f565b73ffffffffffffffffffffffffffffffffffffffff167f8c5be1e5ebec7d5bd14f71427d1e84f3dd0314c0f7b2291e5b200ac8c7c3b92560405160405180910390a45050565b6000806114af83610d1f565b90508073ffffffffffffffffffffffffffffffffffffffff168473ffffffffffffffffffffffffffffffffffffffff1614806114f157506114f08185611215565b5b8061152f57508373ffffffffffffffffffffffffffffffffffffffff166115178461070d565b73ffffffffffffffffffffffffffffffffffffffff16145b91505092915050565b8273ffffffffffffffffffffffffffffffffffffffff1661155882610d1f565b73ffffffffffffffffffffffffffffffffffffffff16146115ae576040517f08c379a00000000000000000000000000000000000000000000000000000000081526004016115a5906138ee565b60405180910390fd5b600073ffffffffffffffffffffffffffffffffffffffff168273ffffffffffffffffffffffffffffffffffffffff16141561161e576040517f08c379a000000000000000000000000000000000000000000000000000000000815260040161161590613980565b60405180910390fd5b611629838383612268565b6116346000826113ea565b6001606860008573ffffffffffffffffffffffffffffffffffffffff1673ffffffffffffffffffffffffffffffffffffffff168152602001908152602001600020600082825461168491906139cf565b925050819055506001606860008473ffffffffffffffffffffffffffffffffffffffff1673ffffffffffffffffffffffffffffffffffffffff16815260200190815260200160002060008282546116db9190613a03565b92505081905550816067600083815260200190815260200160002060006101000a81548173ffffffffffffffffffffffffffffffffffffffff021916908373ffffffffffffffffffffffffffffffffffffffff160217905550808273ffffffffffffffffffffffffffffffffffffffff168473ffffffffffffffffffffffffffffffffffffffff167fddf252ad1be2c89b69c2b068fc378daa952ba7f163c4a11628f55a4df523b3ef60405160405180910390a461179a838383612280565b505050565b60006117cd7f360894a13ba1a3210667c828492db98dca3e2076cc3735a920a3ca505d382bbc60001b612285565b60000160009054906101000a900473ffffffffffffffffffffffffffffffffffffffff16905090565b6117fe61197e565b50565b61182d7f4910fdfa16fed3260ed0e7147f7cc6da11a60208b5b9406d12a635614ffd914360001b61228f565b60000160009054906101000a900460ff16156118515761184c83612299565b611979565b8273ffffffffffffffffffffffffffffffffffffffff166352d1902d6040518163ffffffff1660e01b815260040160206040518083038186803b15801561189757600080fd5b505afa9250505080156118c857506040513d601f19601f820116820180604052508101906118c59190613a85565b60015b611907576040517f08c379a00000000000000000000000000000000000000000000000000000000081526004016118fe90613b24565b60405180910390fd5b7f360894a13ba1a3210667c828492db98dca3e2076cc3735a920a3ca505d382bbc60001b811461196c576040517f08c379a000000000000000000000000000000000000000000000000000000000815260040161196390613bb6565b60405180910390fd5b50611978838383612352565b5b505050565b6119866113e2565b73ffffffffffffffffffffffffffffffffffffffff166119a4611079565b73ffffffffffffffffffffffffffffffffffffffff16146119fa576040517f08c379a00000000000000000000000000000000000000000000000000000000081526004016119f190613c22565b60405180910390fd5b565b611a0461237e565b6000609760006101000a81548160ff0219169083151502179055507f5db9ee0a495bf2e6ff9c91a7834c1ba4fdd244a5e8aa4e537bd38aeae4b073aa611a486113e2565b604051611a559190612d9b565b60405180910390a1565b600081600001549050919050565b6001816000016000828254019250508190555050565b611a9d8282604051806020016040528060008152506123c7565b5050565b6000611aac82610d1f565b9050611aba81600084612268565b611ac56000836113ea565b6001606860008373ffffffffffffffffffffffffffffffffffffffff1673ffffffffffffffffffffffffffffffffffffffff1681526020019081526020016000206000828254611b1591906139cf565b925050819055506067600083815260200190815260200160002060006101000a81549073ffffffffffffffffffffffffffffffffffffffff021916905581600073ffffffffffffffffffffffffffffffffffffffff168273ffffffffffffffffffffffffffffffffffffffff167fddf252ad1be2c89b69c2b068fc378daa952ba7f163c4a11628f55a4df523b3ef60405160405180910390a4611bba81600084612280565b5050565b600060c960009054906101000a900473ffffffffffffffffffffffffffffffffffffffff1690508160c960006101000a81548173ffffffffffffffffffffffffffffffffffffffff021916908373ffffffffffffffffffffffffffffffffffffffff1602179055508173ffffffffffffffffffffffffffffffffffffffff168173ffffffffffffffffffffffffffffffffffffffff167f8be0079c531659141344cd1fd0a4f28419497f9722a3daafe3b4186f6b6457e060405160405180910390a35050565b6000808273ffffffffffffffffffffffffffffffffffffffff163b119050919050565b600060019054906101000a900460ff16611cf6576040517f08c379a0000000000000000000000000000000000000000000000000000000008152600401611ced90613cb4565b60405180910390fd5b611d008282612422565b5050565b600060019054906101000a900460ff16611d53576040517f08c379a0000000000000000000000000000000000000000000000000000000008152600401611d4a90613cb4565b60405180910390fd5b611d5b6124a3565b565b600060019054906101000a900460ff16611dac576040517f08c379a0000000000000000000000000000000000000000000000000000000008152600401611da390613cb4565b60405180910390fd5b611db461250f565b565b600060019054906101000a900460ff16611e05576040517f08c379a0000000000000000000000000000000000000000000000000000000008152600401611dfc90613cb4565b60405180910390fd5b565b600060019054906101000a900460ff16611e56576040517f08c379a0000000000000000000000000000000000000000000000000000000008152600401611e4d90613cb4565b60405180910390fd5b565b611e60612570565b6001609760006101000a81548160ff0219169083151502179055507f62e78cea01bee320cd4e420270b5ea74000d11b0c9f74754ebdbfc544b05a258611ea46113e2565b604051611eb19190612d9b565b60405180910390a1565b8173ffffffffffffffffffffffffffffffffffffffff168373ffffffffffffffffffffffffffffffffffffffff161415611f2a576040517f08c379a0000000000000000000000000000000000000000000000000000000008152600401611f2190613d20565b60405180910390fd5b80606a60008573ffffffffffffffffffffffffffffffffffffffff1673ffffffffffffffffffffffffffffffffffffffff16815260200190815260200160002060008473ffffffffffffffffffffffffffffffffffffffff1673ffffffffffffffffffffffffffffffffffffffff16815260200190815260200160002060006101000a81548160ff0219169083151502179055508173ffffffffffffffffffffffffffffffffffffffff168373ffffffffffffffffffffffffffffffffffffffff167f17307eab39ab6107e8899845ad3d59bd9653f200f220920489ca2b5937696c318360405161201b9190612c21565b60405180910390a3505050565b612033848484611538565b61203f848484846125ba565b61207e576040517f08c379a000000000000000000000000000000000000000000000000000000000815260040161207590613db2565b60405180910390fd5b50505050565b606060405180602001604052806000815250905090565b606060008214156120e3576040518060400160405280600181526020017f300000000000000000000000000000000000000000000000000000000000000081525090506121f7565b600082905060005b600082146121155780806120fe90613dd2565b915050600a8261210e9190613e4a565b91506120eb565b60008167ffffffffffffffff81111561213157612130612eac565b5b6040519080825280601f01601f1916602001820160405280156121635781602001600182028036833780820191505090505b5090505b600085146121f05760018261217c91906139cf565b9150600a8561218b9190613e7b565b60306121979190613a03565b60f81b8183815181106121ad576121ac613eac565b5b60200101907effffffffffffffffffffffffffffffffffffffffffffffffffffffffffffff1916908160001a905350600a856121e99190613e4a565b9450612167565b8093505050505b919050565b60008073ffffffffffffffffffffffffffffffffffffffff166067600084815260200190815260200160002060009054906101000a900473ffffffffffffffffffffffffffffffffffffffff1673ffffffffffffffffffffffffffffffffffffffff1614159050919050565b612270612570565b61227b838383612751565b505050565b505050565b6000819050919050565b6000819050919050565b6122a281611c84565b6122e1576040517f08c379a00000000000000000000000000000000000000000000000000000000081526004016122d890613f4d565b60405180910390fd5b8061230e7f360894a13ba1a3210667c828492db98dca3e2076cc3735a920a3ca505d382bbc60001b612285565b60000160006101000a81548173ffffffffffffffffffffffffffffffffffffffff021916908373ffffffffffffffffffffffffffffffffffffffff16021790555050565b61235b83612756565b6000825111806123685750805b156123795761237783836127a5565b505b505050565b612386610d08565b6123c5576040517f08c379a00000000000000000000000000000000000000000000000000000000081526004016123bc90613fb9565b60405180910390fd5b565b6123d18383612889565b6123de60008484846125ba565b61241d576040517f08c379a000000000000000000000000000000000000000000000000000000000815260040161241490613db2565b60405180910390fd5b505050565b600060019054906101000a900460ff16612471576040517f08c379a000000000000000000000000000000000000000000000000000000000815260040161246890613cb4565b60405180910390fd5b8160659080519060200190612487929190612aca565b50806066908051906020019061249e929190612aca565b505050565b600060019054906101000a900460ff166124f2576040517f08c379a00000000000000000000000000000000000000000000000000000000081526004016124e990613cb4565b60405180910390fd5b6000609760006101000a81548160ff021916908315150217905550565b600060019054906101000a900460ff1661255e576040517f08c379a000000000000000000000000000000000000000000000000000000000815260040161255590613cb4565b60405180910390fd5b61256e6125696113e2565b611bbe565b565b612578610d08565b156125b8576040517f08c379a00000000000000000000000000000000000000000000000000000000081526004016125af90614025565b60405180910390fd5b565b60006125db8473ffffffffffffffffffffffffffffffffffffffff16611c84565b15612744578373ffffffffffffffffffffffffffffffffffffffff1663150b7a026126046113e2565b8786866040518563ffffffff1660e01b8152600401612626949392919061409a565b602060405180830381600087803b15801561264057600080fd5b505af192505050801561267157506040513d601f19601f8201168201806040525081019061266e91906140fb565b60015b6126f4573d80600081146126a1576040519150601f19603f3d011682016040523d82523d6000602084013e6126a6565b606091505b506000815114156126ec576040517f08c379a00000000000000000000000000000000000000000000000000000000081526004016126e390613db2565b60405180910390fd5b805181602001fd5b63150b7a0260e01b7bffffffffffffffffffffffffffffffffffffffffffffffffffffffff1916817bffffffffffffffffffffffffffffffffffffffffffffffffffffffff191614915050612749565b600190505b949350505050565b505050565b61275f81612299565b8073ffffffffffffffffffffffffffffffffffffffff167fbc7cd75a20ee27fd9adebab32041f755214dbc6bffa90cc0225b39da2e5c2d3b60405160405180910390a250565b60606127b083611c84565b6127ef576040517f08c379a00000000000000000000000000000000000000000000000000000000081526004016127e69061419a565b60405180910390fd5b6000808473ffffffffffffffffffffffffffffffffffffffff168460405161281791906141f6565b600060405180830381855af49150503d8060008114612852576040519150601f19603f3d011682016040523d82523d6000602084013e612857565b606091505b509150915061287f82826040518060600160405280602781526020016142e660279139612a63565b9250505092915050565b600073ffffffffffffffffffffffffffffffffffffffff168273ffffffffffffffffffffffffffffffffffffffff1614156128f9576040517f08c379a00000000000000000000000000000000000000000000000000000000081526004016128f090614259565b60405180910390fd5b612902816121fc565b15612942576040517f08c379a0000000000000000000000000000000000000000000000000000000008152600401612939906142c5565b60405180910390fd5b61294e60008383612268565b6001606860008473ffffffffffffffffffffffffffffffffffffffff1673ffffffffffffffffffffffffffffffffffffffff168152602001908152602001600020600082825461299e9190613a03565b92505081905550816067600083815260200190815260200160002060006101000a81548173ffffffffffffffffffffffffffffffffffffffff021916908373ffffffffffffffffffffffffffffffffffffffff160217905550808273ffffffffffffffffffffffffffffffffffffffff16600073ffffffffffffffffffffffffffffffffffffffff167fddf252ad1be2c89b69c2b068fc378daa952ba7f163c4a11628f55a4df523b3ef60405160405180910390a4612a5f60008383612280565b5050565b60608315612a7357829050612ac3565b600083511115612a865782518084602001fd5b816040517f08c379a0000000000000000000000000000000000000000000000000000000008152600401612aba9190612cd5565b60405180910390fd5b9392505050565b828054612ad6906131ef565b90600052602060002090601f016020900481019282612af85760008555612b3f565b82601f10612b1157805160ff1916838001178555612b3f565b82800160010185558215612b3f579182015b82811115612b3e578251825591602001919060010190612b23565b5b509050612b4c9190612b50565b5090565b5b80821115612b69576000816000905550600101612b51565b5090565b6000604051905090565b600080fd5b600080fd5b60007fffffffff0000000000000000000000000000000000000000000000000000000082169050919050565b612bb681612b81565b8114612bc157600080fd5b50565b600081359050612bd381612bad565b92915050565b600060208284031215612bef57612bee612b77565b5b6000612bfd84828501612bc4565b91505092915050565b60008115159050919050565b612c1b81612c06565b82525050565b6000602082019050612c366000830184612c12565b92915050565b600081519050919050565b600082825260208201905092915050565b60005b83811015612c76578082015181840152602081019050612c5b565b83811115612c85576000848401525b50505050565b6000601f19601f8301169050919050565b6000612ca782612c3c565b612cb18185612c47565b9350612cc1818560208601612c58565b612cca81612c8b565b840191505092915050565b60006020820190508181036000830152612cef8184612c9c565b905092915050565b6000819050919050565b612d0a81612cf7565b8114612d1557600080fd5b50565b600081359050612d2781612d01565b92915050565b600060208284031215612d4357612d42612b77565b5b6000612d5184828501612d18565b91505092915050565b600073ffffffffffffffffffffffffffffffffffffffff82169050919050565b6000612d8582612d5a565b9050919050565b612d9581612d7a565b82525050565b6000602082019050612db06000830184612d8c565b92915050565b612dbf81612d7a565b8114612dca57600080fd5b50565b600081359050612ddc81612db6565b92915050565b60008060408385031215612df957612df8612b77565b5b6000612e0785828601612dcd565b9250506020612e1885828601612d18565b9150509250929050565b600080600060608486031215612e3b57612e3a612b77565b5b6000612e4986828701612dcd565b9350506020612e5a86828701612dcd565b9250506040612e6b86828701612d18565b9150509250925092565b600060208284031215612e8b57612e8a612b77565b5b6000612e9984828501612dcd565b91505092915050565b600080fd5b600080fd5b7f4e487b7100000000000000000000000000000000000000000000000000000000600052604160045260246000fd5b612ee482612c8b565b810181811067ffffffffffffffff82111715612f0357612f02612eac565b5b80604052505050565b6000612f16612b6d565b9050612f228282612edb565b919050565b600067ffffffffffffffff821115612f4257612f41612eac565b5b612f4b82612c8b565b9050602081019050919050565b82818337600083830152505050565b6000612f7a612f7584612f27565b612f0c565b905082815260208101848484011115612f9657612f95612ea7565b5b612fa1848285612f58565b509392505050565b600082601f830112612fbe57612fbd612ea2565b5b8135612fce848260208601612f67565b91505092915050565b60008060408385031215612fee57612fed612b77565b5b6000612ffc85828601612dcd565b925050602083013567ffffffffffffffff81111561301d5761301c612b7c565b5b61302985828601612fa9565b9150509250929050565b6000819050919050565b61304681613033565b82525050565b6000602082019050613061600083018461303d565b92915050565b61307081612cf7565b82525050565b600060208201905061308b6000830184613067565b92915050565b61309a81612c06565b81146130a557600080fd5b50565b6000813590506130b781613091565b92915050565b600080604083850312156130d4576130d3612b77565b5b60006130e285828601612dcd565b92505060206130f3858286016130a8565b9150509250929050565b6000806000806080858703121561311757613116612b77565b5b600061312587828801612dcd565b945050602061313687828801612dcd565b935050604061314787828801612d18565b925050606085013567ffffffffffffffff81111561316857613167612b7c565b5b61317487828801612fa9565b91505092959194509250565b6000806040838503121561319757613196612b77565b5b60006131a585828601612dcd565b92505060206131b685828601612dcd565b9150509250929050565b7f4e487b7100000000000000000000000000000000000000000000000000000000600052602260045260246000fd5b6000600282049050600182168061320757607f821691505b6020821081141561321b5761321a6131c0565b5b50919050565b7f4552433732313a20617070726f76616c20746f2063757272656e74206f776e6560008201527f7200000000000000000000000000000000000000000000000000000000000000602082015250565b600061327d602183612c47565b915061328882613221565b604082019050919050565b600060208201905081810360008301526132ac81613270565b9050919050565b7f4552433732313a20617070726f76652063616c6c6572206973206e6f7420746f60008201527f6b656e206f776e6572206e6f7220617070726f76656420666f7220616c6c0000602082015250565b600061330f603e83612c47565b915061331a826132b3565b604082019050919050565b6000602082019050818103600083015261333e81613302565b9050919050565b7f4552433732313a2063616c6c6572206973206e6f7420746f6b656e206f776e6560008201527f72206e6f7220617070726f766564000000000000000000000000000000000000602082015250565b60006133a1602e83612c47565b91506133ac82613345565b604082019050919050565b600060208201905081810360008301526133d081613394565b9050919050565b7f46756e6374696f6e206d7573742062652063616c6c6564207468726f7567682060008201527f64656c656761746563616c6c0000000000000000000000000000000000000000602082015250565b6000613433602c83612c47565b915061343e826133d7565b604082019050919050565b6000602082019050818103600083015261346281613426565b9050919050565b7f46756e6374696f6e206d7573742062652063616c6c6564207468726f7567682060008201527f6163746976652070726f78790000000000000000000000000000000000000000602082015250565b60006134c5602c83612c47565b91506134d082613469565b604082019050919050565b600060208201905081810360008301526134f4816134b8565b9050919050565b7f555550535570677261646561626c653a206d757374206e6f742062652063616c60008201527f6c6564207468726f7567682064656c656761746563616c6c0000000000000000602082015250565b6000613557603883612c47565b9150613562826134fb565b604082019050919050565b600060208201905081810360008301526135868161354a565b9050919050565b7f4552433732313a20696e76616c696420746f6b656e2049440000000000000000600082015250565b60006135c3601883612c47565b91506135ce8261358d565b602082019050919050565b600060208201905081810360008301526135f2816135b6565b9050919050565b7f4552433732313a2061646472657373207a65726f206973206e6f74206120766160008201527f6c6964206f776e65720000000000000000000000000000000000000000000000602082015250565b6000613655602983612c47565b9150613660826135f9565b604082019050919050565b6000602082019050818103600083015261368481613648565b9050919050565b7f496e697469616c697a61626c653a20636f6e747261637420697320616c72656160008201527f647920696e697469616c697a6564000000000000000000000000000000000000602082015250565b60006136e7602e83612c47565b91506136f28261368b565b604082019050919050565b60006020820190508181036000830152613716816136da565b9050919050565b6000819050919050565b600060ff82169050919050565b6000819050919050565b600061375961375461374f8461371d565b613734565b613727565b9050919050565b6137698161373e565b82525050565b60006020820190506137846000830184613760565b92915050565b600081905092915050565b60006137a082612c3c565b6137aa818561378a565b93506137ba818560208601612c58565b80840191505092915050565b60006137d28285613795565b91506137de8284613795565b91508190509392505050565b7f4f776e61626c653a206e6577206f776e657220697320746865207a65726f206160008201527f6464726573730000000000000000000000000000000000000000000000000000602082015250565b6000613846602683612c47565b9150613851826137ea565b604082019050919050565b6000602082019050818103600083015261387581613839565b9050919050565b7f4552433732313a207472616e736665722066726f6d20696e636f72726563742060008201527f6f776e6572000000000000000000000000000000000000000000000000000000602082015250565b60006138d8602583612c47565b91506138e38261387c565b604082019050919050565b60006020820190508181036000830152613907816138cb565b9050919050565b7f4552433732313a207472616e7366657220746f20746865207a65726f2061646460008201527f7265737300000000000000000000000000000000000000000000000000000000602082015250565b600061396a602483612c47565b91506139758261390e565b604082019050919050565b600060208201905081810360008301526139998161395d565b9050919050565b7f4e487b7100000000000000000000000000000000000000000000000000000000600052601160045260246000fd5b60006139da82612cf7565b91506139e583612cf7565b9250828210156139f8576139f76139a0565b5b828203905092915050565b6000613a0e82612cf7565b9150613a1983612cf7565b9250827fffffffffffffffffffffffffffffffffffffffffffffffffffffffffffffffff03821115613a4e57613a4d6139a0565b5b828201905092915050565b613a6281613033565b8114613a6d57600080fd5b50565b600081519050613a7f81613a59565b92915050565b600060208284031215613a9b57613a9a612b77565b5b6000613aa984828501613a70565b91505092915050565b7f45524331393637557067726164653a206e657720696d706c656d656e7461746960008201527f6f6e206973206e6f742055555053000000000000000000000000000000000000602082015250565b6000613b0e602e83612c47565b9150613b1982613ab2565b604082019050919050565b60006020820190508181036000830152613b3d81613b01565b9050919050565b7f45524331393637557067726164653a20756e737570706f727465642070726f7860008201527f6961626c65555549440000000000000000000000000000000000000000000000602082015250565b6000613ba0602983612c47565b9150613bab82613b44565b604082019050919050565b60006020820190508181036000830152613bcf81613b93565b9050919050565b7f4f776e61626c653a2063616c6c6572206973206e6f7420746865206f776e6572600082015250565b6000613c0c602083612c47565b9150613c1782613bd6565b602082019050919050565b60006020820190508181036000830152613c3b81613bff565b9050919050565b7f496e697469616c697a61626c653a20636f6e7472616374206973206e6f74206960008201527f6e697469616c697a696e67000000000000000000000000000000000000000000602082015250565b6000613c9e602b83612c47565b9150613ca982613c42565b604082019050919050565b60006020820190508181036000830152613ccd81613c91565b9050919050565b7f4552433732313a20617070726f766520746f2063616c6c657200000000000000600082015250565b6000613d0a601983612c47565b9150613d1582613cd4565b602082019050919050565b60006020820190508181036000830152613d3981613cfd565b9050919050565b7f4552433732313a207472616e7366657220746f206e6f6e20455243373231526560008201527f63656976657220696d706c656d656e7465720000000000000000000000000000602082015250565b6000613d9c603283612c47565b9150613da782613d40565b604082019050919050565b60006020820190508181036000830152613dcb81613d8f565b9050919050565b6000613ddd82612cf7565b91507fffffffffffffffffffffffffffffffffffffffffffffffffffffffffffffffff821415613e1057613e0f6139a0565b5b600182019050919050565b7f4e487b7100000000000000000000000000000000000000000000000000000000600052601260045260246000fd5b6000613e5582612cf7565b9150613e6083612cf7565b925082613e7057613e6f613e1b565b5b828204905092915050565b6000613e8682612cf7565b9150613e9183612cf7565b925082613ea157613ea0613e1b565b5b828206905092915050565b7f4e487b7100000000000000000000000000000000000000000000000000000000600052603260045260246000fd5b7f455243313936373a206e657720696d706c656d656e746174696f6e206973206e60008201527f6f74206120636f6e747261637400000000000000000000000000000000000000602082015250565b6000613f37602d83612c47565b9150613f4282613edb565b604082019050919050565b60006020820190508181036000830152613f6681613f2a565b9050919050565b7f5061757361626c653a206e6f7420706175736564000000000000000000000000600082015250565b6000613fa3601483612c47565b9150613fae82613f6d565b602082019050919050565b60006020820190508181036000830152613fd281613f96565b9050919050565b7f5061757361626c653a2070617573656400000000000000000000000000000000600082015250565b600061400f601083612c47565b915061401a82613fd9565b602082019050919050565b6000602082019050818103600083015261403e81614002565b9050919050565b600081519050919050565b600082825260208201905092915050565b600061406c82614045565b6140768185614050565b9350614086818560208601612c58565b61408f81612c8b565b840191505092915050565b60006080820190506140af6000830187612d8c565b6140bc6020830186612d8c565b6140c96040830185613067565b81810360608301526140db8184614061565b905095945050505050565b6000815190506140f581612bad565b92915050565b60006020828403121561411157614110612b77565b5b600061411f848285016140e6565b91505092915050565b7f416464726573733a2064656c65676174652063616c6c20746f206e6f6e2d636f60008201527f6e74726163740000000000000000000000000000000000000000000000000000602082015250565b6000614184602683612c47565b915061418f82614128565b604082019050919050565b600060208201905081810360008301526141b381614177565b9050919050565b600081905092915050565b60006141d082614045565b6141da81856141ba565b93506141ea818560208601612c58565b80840191505092915050565b600061420282846141c5565b915081905092915050565b7f4552433732313a206d696e7420746f20746865207a65726f2061646472657373600082015250565b6000614243602083612c47565b915061424e8261420d565b602082019050919050565b6000602082019050818103600083015261427281614236565b9050919050565b7f4552433732313a20746f6b656e20616c7265616479206d696e74656400000000600082015250565b60006142af601c83612c47565b91506142ba82614279565b602082019050919050565b600060208201905081810360008301526142de816142a2565b905091905056fe416464726573733a206c6f772d6c6576656c2064656c65676174652063616c6c206661696c6564a2646970667358221220905fc641d27f236e53dec169ed97ba772b180e6ce3c0e6c9f76d557f2da1345064736f6c63430008090033",
  "linkReferences": {},
  "deployedLinkReferences": {}
}